:100000000C9446000C9465000C9465000C946500FB
:100010000C9465000C9465000C9465000C946500CC
:100020000C9465000C9465000C9465000C946500BC
:100030000C9465000C9465000C9465000C946500AC
:100040000C9465000C9465000C9465000C9465009C
:100050000C9465000C9465000C9465000C9465008C
:100060000C9465000C9465000C9465000C9465007C
:100070000C9465000C9465000C9465000C9465006C
:100080000C9465000C9465000C94650011241FBE4F
:10009000CFEFD0E4DEBFCDBF11E0A0E0B1E0E0E8FB
:1000A000F2E000E00BBF02C007900D92AE30B10746
:1000B000D9F711E0AEE0B1E001C01D92A031B10767
:1000C000E1F70E9425010C943E010C940000CF93AF
:1000D000DF9300D01F92CDB7DEB789837B836A831D
:1000E00089818A3031F48A819B81BC018DE00E9434
:1000F000670080EC90E0FC018081882F90E08072A6
:1001000099270097B1F386EC90E02981FC012083C8
:1001100080E090E00F900F900F90DF91CF910895C5
:10012000CF93DF931F92CDB7DEB780E290E0FC0162
:1001300080818170898380910E0190910F018130BF
:10014000910589F08130910538F082309105E1F018
:1001500083309105A9F145C081E090E090930F01B3
:1001600080930E0143C08981813039F481E090E0B1
:1001700090930F0180930E0139C082E090E090933C
:100180000F0180930E0132C08981813039F482E001
:1001900090E090930F0180930E0111C08981882314
:1001A00039F483E090E090930F0180930E0107C033
:1001B00082E090E090930F0180930E0117C016C06B
:1001C0008981813039F481E090E090930F01809330
:1001D0000E010CC082E090E090930F0180930E011D
:1001E00005C010920F0110920E01000080910E01C7
:1001F00090910F018130910581F08130910538F0A7
:1002000082309105E9F08330910569F012C085E2F2
:1002100090E021E0FC01208314C085E290E021E021
:10022000FC0120830EC085E290E022E0FC012083E7
:1002300008C085E290E021E0FC012083000001C0BD
:1002400000000F90DF91CF910895CF93DF93CDB74A
:10025000DEB781E290E0FC01108282E290E02FEFB5
:10026000FC01208384E290E02FEFFC01208385E2F3
:1002700090E0FC0110820E949000FDCFF894FFCF27
:0E028000000000020000000067000000000007
:00000001FF
